{
  "contractName": "Token",
  "abi": [
    {
      "inputs": [
        {
          "internalType": "string",
          "name": "name",
          "type": "string"
        },
        {
          "internalType": "string",
          "name": "symbol",
          "type": "string"
        }
      ],
      "stateMutability": "nonpayable",
      "type": "constructor"
    },
    {
      "anonymous": false,
      "inputs": [
        {
          "indexed": true,
          "internalType": "address",
          "name": "owner",
          "type": "address"
        },
        {
          "indexed": true,
          "internalType": "address",
          "name": "approved",
          "type": "address"
        },
        {
          "indexed": true,
          "internalType": "uint256",
          "name": "tokenId",
          "type": "uint256"
        }
      ],
      "name": "Approval",
      "type": "event"
    },
    {
      "anonymous": false,
      "inputs": [
        {
          "indexed": true,
          "internalType": "address",
          "name": "owner",
          "type": "address"
        },
        {
          "indexed": true,
          "internalType": "address",
          "name": "operator",
          "type": "address"
        },
        {
          "indexed": false,
          "internalType": "bool",
          "name": "approved",
          "type": "bool"
        }
      ],
      "name": "ApprovalForAll",
      "type": "event"
    },
    {
      "anonymous": false,
      "inputs": [
        {
          "indexed": true,
          "internalType": "address",
          "name": "previousOwner",
          "type": "address"
        },
        {
          "indexed": true,
          "internalType": "address",
          "name": "newOwner",
          "type": "address"
        }
      ],
      "name": "OwnershipTransferred",
      "type": "event"
    },
    {
      "anonymous": false,
      "inputs": [
        {
          "indexed": true,
          "internalType": "address",
          "name": "from",
          "type": "address"
        },
        {
          "indexed": true,
          "internalType": "address",
          "name": "to",
          "type": "address"
        },
        {
          "indexed": true,
          "internalType": "uint256",
          "name": "tokenId",
          "type": "uint256"
        }
      ],
      "name": "Transfer",
      "type": "event"
    },
    {
      "inputs": [
        {
          "internalType": "address",
          "name": "to",
          "type": "address"
        },
        {
          "internalType": "uint256",
          "name": "tokenId",
          "type": "uint256"
        }
      ],
      "name": "approve",
      "outputs": [],
      "stateMutability": "nonpayable",
      "type": "function"
    },
    {
      "inputs": [
        {
          "internalType": "address",
          "name": "owner",
          "type": "address"
        }
      ],
      "name": "balanceOf",
      "outputs": [
        {
          "internalType": "uint256",
          "name": "",
          "type": "uint256"
        }
      ],
      "stateMutability": "view",
      "type": "function",
      "constant": true
    },
    {
      "inputs": [
        {
          "internalType": "uint256",
          "name": "tokenId",
          "type": "uint256"
        }
      ],
      "name": "getApproved",
      "outputs": [
        {
          "internalType": "address",
          "name": "",
          "type": "address"
        }
      ],
      "stateMutability": "view",
      "type": "function",
      "constant": true
    },
    {
      "inputs": [
        {
          "internalType": "address",
          "name": "owner",
          "type": "address"
        },
        {
          "internalType": "address",
          "name": "operator",
          "type": "address"
        }
      ],
      "name": "isApprovedForAll",
      "outputs": [
        {
          "internalType": "bool",
          "name": "",
          "type": "bool"
        }
      ],
      "stateMutability": "view",
      "type": "function",
      "constant": true
    },
    {
      "inputs": [],
      "name": "name",
      "outputs": [
        {
          "internalType": "string",
          "name": "",
          "type": "string"
        }
      ],
      "stateMutability": "view",
      "type": "function",
      "constant": true
    },
    {
      "inputs": [],
      "name": "owner",
      "outputs": [
        {
          "internalType": "address",
          "name": "",
          "type": "address"
        }
      ],
      "stateMutability": "view",
      "type": "function",
      "constant": true
    },
    {
      "inputs": [
        {
          "internalType": "uint256",
          "name": "tokenId",
          "type": "uint256"
        }
      ],
      "name": "ownerOf",
      "outputs": [
        {
          "internalType": "address",
          "name": "",
          "type": "address"
        }
      ],
      "stateMutability": "view",
      "type": "function",
      "constant": true
    },
    {
      "inputs": [],
      "name": "renounceOwnership",
      "outputs": [],
      "stateMutability": "nonpayable",
      "type": "function"
    },
    {
      "inputs": [
        {
          "internalType": "address",
          "name": "from",
          "type": "address"
        },
        {
          "internalType": "address",
          "name": "to",
          "type": "address"
        },
        {
          "internalType": "uint256",
          "name": "tokenId",
          "type": "uint256"
        }
      ],
      "name": "safeTransferFrom",
      "outputs": [],
      "stateMutability": "nonpayable",
      "type": "function"
    },
    {
      "inputs": [
        {
          "internalType": "address",
          "name": "from",
          "type": "address"
        },
        {
          "internalType": "address",
          "name": "to",
          "type": "address"
        },
        {
          "internalType": "uint256",
          "name": "tokenId",
          "type": "uint256"
        },
        {
          "internalType": "bytes",
          "name": "_data",
          "type": "bytes"
        }
      ],
      "name": "safeTransferFrom",
      "outputs": [],
      "stateMutability": "nonpayable",
      "type": "function"
    },
    {
      "inputs": [
        {
          "internalType": "address",
          "name": "operator",
          "type": "address"
        },
        {
          "internalType": "bool",
          "name": "approved",
          "type": "bool"
        }
      ],
      "name": "setApprovalForAll",
      "outputs": [],
      "stateMutability": "nonpayable",
      "type": "function"
    },
    {
      "inputs": [
        {
          "internalType": "bytes4",
          "name": "interfaceId",
          "type": "bytes4"
        }
      ],
      "name": "supportsInterface",
      "outputs": [
        {
          "internalType": "bool",
          "name": "",
          "type": "bool"
        }
      ],
      "stateMutability": "view",
      "type": "function",
      "constant": true
    },
    {
      "inputs": [],
      "name": "symbol",
      "outputs": [
        {
          "internalType": "string",
          "name": "",
          "type": "string"
        }
      ],
      "stateMutability": "view",
      "type": "function",
      "constant": true
    },
    {
      "inputs": [
        {
          "internalType": "uint256",
          "name": "tokenId",
          "type": "uint256"
        }
      ],
      "name": "tokenURI",
      "outputs": [
        {
          "internalType": "string",
          "name": "",
          "type": "string"
        }
      ],
      "stateMutability": "view",
      "type": "function",
      "constant": true
    },
    {
      "inputs": [
        {
          "internalType": "address",
          "name": "from",
          "type": "address"
        },
        {
          "internalType": "address",
          "name": "to",
          "type": "address"
        },
        {
          "internalType": "uint256",
          "name": "tokenId",
          "type": "uint256"
        }
      ],
      "name": "transferFrom",
      "outputs": [],
      "stateMutability": "nonpayable",
      "type": "function"
    },
    {
      "inputs": [
        {
          "internalType": "address",
          "name": "newOwner",
          "type": "address"
        }
      ],
      "name": "transferOwnership",
      "outputs": [],
      "stateMutability": "nonpayable",
      "type": "function"
    },
    {
      "inputs": [
        {
          "internalType": "uint256",
          "name": "tokenId",
          "type": "uint256"
        }
      ],
      "name": "getTokenDetails",
      "outputs": [
        {
          "components": [
            {
              "internalType": "uint8",
              "name": "damage",
              "type": "uint8"
            },
            {
              "internalType": "uint8",
              "name": "magic",
              "type": "uint8"
            },
            {
              "internalType": "uint256",
              "name": "lastMeal",
              "type": "uint256"
            },
            {
              "internalType": "uint256",
              "name": "endurance",
              "type": "uint256"
            }
          ],
          "internalType": "struct Token.Pet",
          "name": "",
          "type": "tuple"
        }
      ],
      "stateMutability": "view",
      "type": "function",
      "constant": true
    },
    {
      "inputs": [
        {
          "internalType": "uint8",
          "name": "damage",
          "type": "uint8"
        },
        {
          "internalType": "uint8",
          "name": "magic",
          "type": "uint8"
        },
        {
          "internalType": "uint256",
          "name": "endurance",
          "type": "uint256"
        }
      ],
      "name": "mint",
      "outputs": [],
      "stateMutability": "nonpayable",
      "type": "function"
    },
    {
      "inputs": [
        {
          "internalType": "uint256",
          "name": "tokenId",
          "type": "uint256"
        }
      ],
      "name": "feed",
      "outputs": [],
      "stateMutability": "nonpayable",
      "type": "function"
    }
  ],
  "bytecode": "0x608060405260006007553480156200001657600080fd5b506040516200326d3803806200326d83398181016040528101906200003c919062000255565b818181600090805190602001906200005692919062000133565b5080600190805190602001906200006f92919062000133565b5050506000620000846200012b60201b60201c565b905080600660006101000a81548173ffffffffffffffffffffffffffffffffffffffff021916908373ffffffffffffffffffffffffffffffffffffffff1602179055508073ffffffffffffffffffffffffffffffffffffffff16600073ffffffffffffffffffffffffffffffffffffffff167f8be0079c531659141344cd1fd0a4f28419497f9722a3daafe3b4186f6b6457e060405160405180910390a3505050620003f9565b600033905090565b828054620001419062000365565b90600052602060002090601f016020900481019282620001655760008555620001b1565b82601f106200018057805160ff1916838001178555620001b1565b82800160010185558215620001b1579182015b82811115620001b057825182559160200191906001019062000193565b5b509050620001c09190620001c4565b5090565b5b80821115620001df576000816000905550600101620001c5565b5090565b6000620001fa620001f484620002fc565b620002c8565b9050828152602081018484840111156200021357600080fd5b620002208482856200032f565b509392505050565b600082601f8301126200023a57600080fd5b81516200024c848260208601620001e3565b91505092915050565b600080604083850312156200026957600080fd5b600083015167ffffffffffffffff8111156200028457600080fd5b620002928582860162000228565b925050602083015167ffffffffffffffff811115620002b057600080fd5b620002be8582860162000228565b9150509250929050565b6000604051905081810181811067ffffffffffffffff82111715620002f257620002f1620003ca565b5b8060405250919050565b600067ffffffffffffffff8211156200031a5762000319620003ca565b5b601f19601f8301169050602081019050919050565b60005b838110156200034f57808201518184015260208101905062000332565b838111156200035f576000848401525b50505050565b600060028204905060018216806200037e57607f821691505b602082108114156200039557620003946200039b565b5b50919050565b7f4e487b7100000000000000000000000000000000000000000000000000000000600052602260045260246000fd5b7f4e487b7100000000000000000000000000000000000000000000000000000000600052604160045260246000fd5b612e6480620004096000396000f3fe608060405234801561001057600080fd5b50600436106101215760003560e01c80638da5cb5b116100ad578063c87b56dd11610071578063c87b56dd14610306578063e985e9c514610336578063eb22ed3214610366578063f2fde38b14610382578063f59dfdfb1461039e57610121565b80638da5cb5b1461026257806395d89b4114610280578063a22cb4651461029e578063b88d4fde146102ba578063c1e03728146102d657610121565b806323b872dd116100f457806323b872dd146101c057806342842e0e146101dc5780636352211e146101f857806370a0823114610228578063715018a61461025857610121565b806301ffc9a71461012657806306fdde0314610156578063081812fc14610174578063095ea7b3146101a4575b600080fd5b610140600480360381019061013b9190611f4d565b6103ba565b60405161014d91906127ad565b60405180910390f35b61015e61049c565b60405161016b91906127c8565b60405180910390f35b61018e60048036038101906101899190611f9f565b61052e565b60405161019b9190612746565b60405180910390f35b6101be60048036038101906101b99190611f11565b6105b3565b005b6101da60048036038101906101d59190611e0b565b6106cb565b005b6101f660048036038101906101f19190611e0b565b61072b565b005b610212600480360381019061020d9190611f9f565b61074b565b60405161021f9190612746565b60405180910390f35b610242600480360381019061023d9190611da6565b6107fd565b60405161024f9190612a05565b60405180910390f35b6102606108b5565b005b61026a6109f2565b6040516102779190612746565b60405180910390f35b610288610a1c565b60405161029591906127c8565b60405180910390f35b6102b860048036038101906102b39190611ed5565b610aae565b005b6102d460048036038101906102cf9190611e5a565b610c2f565b005b6102f060048036038101906102eb9190611f9f565b610c91565b6040516102fd91906129ea565b60405180910390f35b610320600480360381019061031b9190611f9f565b610d0c565b60405161032d91906127c8565b60405180910390f35b610350600480360381019061034b9190611dcf565b610db3565b60405161035d91906127ad565b60405180910390f35b610380600480360381019061037b9190611fc8565b610e47565b005b61039c60048036038101906103979190611da6565b610f81565b005b6103b860048036038101906103b39190611f9f565b61112d565b005b60007f80ac58cd000000000000000000000000000000000000000000000000000000007bffffffffffffffffffffffffffffffffffffffffffffffffffffffff1916827bffffffffffffffffffffffffffffffffffffffffffffffffffffffff1916148061048557507f5b5e139f000000000000000000000000000000000000000000000000000000007bffffffffffffffffffffffffffffffffffffffffffffffffffffffff1916827bffffffffffffffffffffffffffffffffffffffffffffffffffffffff1916145b80610495575061049482611172565b5b9050919050565b6060600080546104ab90612c42565b80601f01602080910402602001604051908101604052809291908181526020018280546104d790612c42565b80156105245780601f106104f957610100808354040283529160200191610524565b820191906000526020600020905b81548152906001019060200180831161050757829003601f168201915b5050505050905090565b6000610539826111dc565b610578576040517f08c379a000000000000000000000000000000000000000000000000000000000815260040161056f9061292a565b60405180910390fd5b6004600083815260200190815260200160002060009054906101000a900473ffffffffffffffffffffffffffffffffffffffff169050919050565b60006105be8261074b565b90508073ffffffffffffffffffffffffffffffffffffffff168373ffffffffffffffffffffffffffffffffffffffff16141561062f576040517f08c379a0000000000000000000000000000000000000000000000000000000008152600401610626906129aa565b60405180910390fd5b8073ffffffffffffffffffffffffffffffffffffffff1661064e611248565b73ffffffffffffffffffffffffffffffffffffffff16148061067d575061067c81610677611248565b610db3565b5b6106bc576040517f08c379a00000000000000000000000000000000000000000000000000000000081526004016106b3906128aa565b60405180910390fd5b6106c68383611250565b505050565b6106dc6106d6611248565b82611309565b61071b576040517f08c379a0000000000000000000000000000000000000000000000000000000008152600401610712906129ca565b60405180910390fd5b6107268383836113e7565b505050565b61074683838360405180602001604052806000815250610c2f565b505050565b6000806002600084815260200190815260200160002060009054906101000a900473ffffffffffffffffffffffffffffffffffffffff169050600073ffffffffffffffffffffffffffffffffffffffff168173ffffffffffffffffffffffffffffffffffffffff1614156107f4576040517f08c379a00000000000000000000000000000000000000000000000000000000081526004016107eb906128ea565b60405180910390fd5b80915050919050565b60008073ffffffffffffffffffffffffffffffffffffffff168273ffffffffffffffffffffffffffffffffffffffff16141561086e576040517f08c379a0000000000000000000000000000000000000000000000000000000008152600401610865906128ca565b60405180910390fd5b600360008373ffffffffffffffffffffffffffffffffffffffff1673ffffffffffffffffffffffffffffffffffffffff168152602001908152602001600020549050919050565b6108bd611248565b73ffffffffffffffffffffffffffffffffffffffff166108db6109f2565b73ffffffffffffffffffffffffffffffffffffffff1614610931576040517f08c379a00000000000000000000000000000000000000000000000000000000081526004016109289061294a565b60405180910390fd5b600073ffffffffffffffffffffffffffffffffffffffff16600660009054906101000a900473ffffffffffffffffffffffffffffffffffffffff1673ffffffffffffffffffffffffffffffffffffffff167f8be0079c531659141344cd1fd0a4f28419497f9722a3daafe3b4186f6b6457e060405160405180910390a36000600660006101000a81548173ffffffffffffffffffffffffffffffffffffffff021916908373ffffffffffffffffffffffffffffffffffffffff160217905550565b6000600660009054906101000a900473ffffffffffffffffffffffffffffffffffffffff16905090565b606060018054610a2b90612c42565b80601f0160208091040260200160405190810160405280929190818152602001828054610a5790612c42565b8015610aa45780601f10610a7957610100808354040283529160200191610aa4565b820191906000526020600020905b815481529060010190602001808311610a8757829003601f168201915b5050505050905090565b610ab6611248565b73ffffffffffffffffffffffffffffffffffffffff168273ffffffffffffffffffffffffffffffffffffffff161415610b24576040517f08c379a0000000000000000000000000000000000000000000000000000000008152600401610b1b9061286a565b60405180910390fd5b8060056000610b31611248565b73ffffffffffffffffffffffffffffffffffffffff1673ffffffffffffffffffffffffffffffffffffffff16815260200190815260200160002060008473ffffffffffffffffffffffffffffffffffffffff1673ffffffffffffffffffffffffffffffffffffffff16815260200190815260200160002060006101000a81548160ff0219169083151502179055508173ffffffffffffffffffffffffffffffffffffffff16610bde611248565b73ffffffffffffffffffffffffffffffffffffffff167f17307eab39ab6107e8899845ad3d59bd9653f200f220920489ca2b5937696c3183604051610c2391906127ad565b60405180910390a35050565b610c40610c3a611248565b83611309565b610c7f576040517f08c379a0000000000000000000000000000000000000000000000000000000008152600401610c76906129ca565b60405180910390fd5b610c8b84848484611643565b50505050565b610c99611c92565b600860008381526020019081526020016000206040518060800160405290816000820160009054906101000a900460ff1660ff1660ff1681526020016000820160019054906101000a900460ff1660ff1660ff168152602001600182015481526020016002820154815250509050919050565b6060610d17826111dc565b610d56576040517f08c379a0000000000000000000000000000000000000000000000000000000008152600401610d4d9061298a565b60405180910390fd5b6000610d6061169f565b90506000815111610d805760405180602001604052806000815250610dab565b80610d8a846116b6565b604051602001610d9b929190612722565b6040516020818303038152906040525b915050919050565b6000600560008473ffffffffffffffffffffffffffffffffffffffff1673ffffffffffffffffffffffffffffffffffffffff16815260200190815260200160002060008373ffffffffffffffffffffffffffffffffffffffff1673ffffffffffffffffffffffffffffffffffffffff16815260200190815260200160002060009054906101000a900460ff16905092915050565b610e4f611248565b73ffffffffffffffffffffffffffffffffffffffff16610e6d6109f2565b73ffffffffffffffffffffffffffffffffffffffff1614610ec3576040517f08c379a0000000000000000000000000000000000000000000000000000000008152600401610eba9061294a565b60405180910390fd5b60405180608001604052808360ff1681526020018460ff1681526020014281526020018281525060086000600754815260200190815260200160002060008201518160000160006101000a81548160ff021916908360ff16021790555060208201518160000160016101000a81548160ff021916908360ff1602179055506040820151816001015560608201518160020155905050610f6433600754611863565b60076000815480929190610f7790612c74565b9190505550505050565b610f89611248565b73ffffffffffffffffffffffffffffffffffffffff16610fa76109f2565b73ffffffffffffffffffffffffffffffffffffffff1614610ffd576040517f08c379a0000000000000000000000000000000000000000000000000000000008152600401610ff49061294a565b60405180910390fd5b600073ffffffffffffffffffffffffffffffffffffffff168173ffffffffffffffffffffffffffffffffffffffff16141561106d576040517f08c379a00000000000000000000000000000000000000000000000000000000081526004016110649061280a565b60405180910390fd5b8073ffffffffffffffffffffffffffffffffffffffff16600660009054906101000a900473ffffffffffffffffffffffffffffffffffffffff1673ffffffffffffffffffffffffffffffffffffffff167f8be0079c531659141344cd1fd0a4f28419497f9722a3daafe3b4186f6b6457e060405160405180910390a380600660006101000a81548173ffffffffffffffffffffffffffffffffffffffff021916908373ffffffffffffffffffffffffffffffffffffffff16021790555050565b60006008600060075481526020019081526020016000209050428160020154826001015461115b9190612ac4565b1161116557600080fd5b4281600101819055505050565b60007f01ffc9a7000000000000000000000000000000000000000000000000000000007bffffffffffffffffffffffffffffffffffffffffffffffffffffffff1916827bffffffffffffffffffffffffffffffffffffffffffffffffffffffff1916149050919050565b60008073ffffffffffffffffffffffffffffffffffffffff166002600084815260200190815260200160002060009054906101000a900473ffffffffffffffffffffffffffffffffffffffff1673ffffffffffffffffffffffffffffffffffffffff1614159050919050565b600033905090565b816004600083815260200190815260200160002060006101000a81548173ffffffffffffffffffffffffffffffffffffffff021916908373ffffffffffffffffffffffffffffffffffffffff160217905550808273ffffffffffffffffffffffffffffffffffffffff166112c38361074b565b73ffffffffffffffffffffffffffffffffffffffff167f8c5be1e5ebec7d5bd14f71427d1e84f3dd0314c0f7b2291e5b200ac8c7c3b92560405160405180910390a45050565b6000611314826111dc565b611353576040517f08c379a000000000000000000000000000000000000000000000000000000000815260040161134a9061288a565b60405180910390fd5b600061135e8361074b565b90508073ffffffffffffffffffffffffffffffffffffffff168473ffffffffffffffffffffffffffffffffffffffff1614806113cd57508373ffffffffffffffffffffffffffffffffffffffff166113b58461052e565b73ffffffffffffffffffffffffffffffffffffffff16145b806113de57506113dd8185610db3565b5b91505092915050565b8273ffffffffffffffffffffffffffffffffffffffff166114078261074b565b73ffffffffffffffffffffffffffffffffffffffff161461145d576040517f08c379a00000000000000000000000000000000000000000000000000000000081526004016114549061296a565b60405180910390fd5b600073ffffffffffffffffffffffffffffffffffffffff168273ffffffffffffffffffffffffffffffffffffffff1614156114cd576040517f08c379a00000000000000000000000000000000000000000000000000000000081526004016114c49061284a565b60405180910390fd5b6114d8838383611881565b6114e3600082611250565b6001600360008573ffffffffffffffffffffffffffffffffffffffff1673ffffffffffffffffffffffffffffffffffffffff16815260200190815260200160002060008282546115339190612b4b565b925050819055506001600360008473ffffffffffffffffffffffffffffffffffffffff1673ffffffffffffffffffffffffffffffffffffffff168152602001908152602001600020600082825461158a9190612ac4565b92505081905550816002600083815260200190815260200160002060006101000a81548173ffffffffffffffffffffffffffffffffffffffff021916908373ffffffffffffffffffffffffffffffffffffffff160217905550808273ffffffffffffffffffffffffffffffffffffffff168473ffffffffffffffffffffffffffffffffffffffff167fddf252ad1be2c89b69c2b068fc378daa952ba7f163c4a11628f55a4df523b3ef60405160405180910390a4505050565b61164e8484846113e7565b61165a848484846118bf565b611699576040517f08c379a0000000000000000000000000000000000000000000000000000000008152600401611690906127ea565b60405180910390fd5b50505050565b606060405180602001604052806000815250905090565b606060008214156116fe576040518060400160405280600181526020017f3000000000000000000000000000000000000000000000000000000000000000815250905061185e565b600082905060005b6000821461173057808061171990612c74565b915050600a826117299190612b1a565b9150611706565b60008167ffffffffffffffff811115611772577f4e487b7100000000000000000000000000000000000000000000000000000000600052604160045260246000fd5b6040519080825280601f01601f1916602001820160405280156117a45781602001600182028036833780820191505090505b5090505b60008514611857576001826117bd9190612b4b565b9150600a856117cc9190612cbd565b60306117d89190612ac4565b60f81b818381518110611814577f4e487b7100000000000000000000000000000000000000000000000000000000600052603260045260246000fd5b60200101907effffffffffffffffffffffffffffffffffffffffffffffffffffffffffffff1916908160001a905350600a856118509190612b1a565b94506117a8565b8093505050505b919050565b61187d828260405180602001604052806000815250611a56565b5050565b6000600860006007548152602001908152602001600020905042816002015482600101546118af9190612ac4565b116118b957600080fd5b50505050565b60006118e08473ffffffffffffffffffffffffffffffffffffffff16611ab1565b15611a49578373ffffffffffffffffffffffffffffffffffffffff1663150b7a02611909611248565b8786866040518563ffffffff1660e01b815260040161192b9493929190612761565b602060405180830381600087803b15801561194557600080fd5b505af192505050801561197657506040513d601f19601f820116820180604052508101906119739190611f76565b60015b6119f9573d80600081146119a6576040519150601f19603f3d011682016040523d82523d6000602084013e6119ab565b606091505b506000815114156119f1576040517f08c379a00000000000000000000000000000000000000000000000000000000081526004016119e8906127ea565b60405180910390fd5b805181602001fd5b63150b7a0260e01b7bffffffffffffffffffffffffffffffffffffffffffffffffffffffff1916817bffffffffffffffffffffffffffffffffffffffffffffffffffffffff191614915050611a4e565b600190505b949350505050565b611a608383611ac4565b611a6d60008484846118bf565b611aac576040517f08c379a0000000000000000000000000000000000000000000000000000000008152600401611aa3906127ea565b60405180910390fd5b505050565b600080823b905060008111915050919050565b600073ffffffffffffffffffffffffffffffffffffffff168273ffffffffffffffffffffffffffffffffffffffff161415611b34576040517f08c379a0000000000000000000000000000000000000000000000000000000008152600401611b2b9061290a565b60405180910390fd5b611b3d816111dc565b15611b7d576040517f08c379a0000000000000000000000000000000000000000000000000000000008152600401611b749061282a565b60405180910390fd5b611b8960008383611881565b6001600360008473ffffffffffffffffffffffffffffffffffffffff1673ffffffffffffffffffffffffffffffffffffffff1681526020019081526020016000206000828254611bd99190612ac4565b92505081905550816002600083815260200190815260200160002060006101000a81548173ffffffffffffffffffffffffffffffffffffffff021916908373ffffffffffffffffffffffffffffffffffffffff160217905550808273ffffffffffffffffffffffffffffffffffffffff16600073ffffffffffffffffffffffffffffffffffffffff167fddf252ad1be2c89b69c2b068fc378daa952ba7f163c4a11628f55a4df523b3ef60405160405180910390a45050565b6040518060800160405280600060ff168152602001600060ff16815260200160008152602001600081525090565b6000611cd3611cce84612a51565b612a20565b905082815260208101848484011115611ceb57600080fd5b611cf6848285612c00565b509392505050565b600081359050611d0d81612dbb565b92915050565b600081359050611d2281612dd2565b92915050565b600081359050611d3781612de9565b92915050565b600081519050611d4c81612de9565b92915050565b600082601f830112611d6357600080fd5b8135611d73848260208601611cc0565b91505092915050565b600081359050611d8b81612e00565b92915050565b600081359050611da081612e17565b92915050565b600060208284031215611db857600080fd5b6000611dc684828501611cfe565b91505092915050565b60008060408385031215611de257600080fd5b6000611df085828601611cfe565b9250506020611e0185828601611cfe565b9150509250929050565b600080600060608486031215611e2057600080fd5b6000611e2e86828701611cfe565b9350506020611e3f86828701611cfe565b9250506040611e5086828701611d7c565b9150509250925092565b60008060008060808587031215611e7057600080fd5b6000611e7e87828801611cfe565b9450506020611e8f87828801611cfe565b9350506040611ea087828801611d7c565b925050606085013567ffffffffffffffff811115611ebd57600080fd5b611ec987828801611d52565b91505092959194509250565b60008060408385031215611ee857600080fd5b6000611ef685828601611cfe565b9250506020611f0785828601611d13565b9150509250929050565b60008060408385031215611f2457600080fd5b6000611f3285828601611cfe565b9250506020611f4385828601611d7c565b9150509250929050565b600060208284031215611f5f57600080fd5b6000611f6d84828501611d28565b91505092915050565b600060208284031215611f8857600080fd5b6000611f9684828501611d3d565b91505092915050565b600060208284031215611fb157600080fd5b6000611fbf84828501611d7c565b91505092915050565b600080600060608486031215611fdd57600080fd5b6000611feb86828701611d91565b9350506020611ffc86828701611d91565b925050604061200d86828701611d7c565b9150509250925092565b61202081612b7f565b82525050565b61202f81612b91565b82525050565b600061204082612a81565b61204a8185612a97565b935061205a818560208601612c0f565b61206381612daa565b840191505092915050565b600061207982612a8c565b6120838185612aa8565b9350612093818560208601612c0f565b61209c81612daa565b840191505092915050565b60006120b282612a8c565b6120bc8185612ab9565b93506120cc818560208601612c0f565b80840191505092915050565b60006120e5603283612aa8565b91507f4552433732313a207472616e7366657220746f206e6f6e20455243373231526560008301527f63656976657220696d706c656d656e74657200000000000000000000000000006020830152604082019050919050565b600061214b602683612aa8565b91507f4f776e61626c653a206e6577206f776e657220697320746865207a65726f206160008301527f64647265737300000000000000000000000000000000000000000000000000006020830152604082019050919050565b60006121b1601c83612aa8565b91507f4552433732313a20746f6b656e20616c7265616479206d696e746564000000006000830152602082019050919050565b60006121f1602483612aa8565b91507f4552433732313a207472616e7366657220746f20746865207a65726f2061646460008301527f72657373000000000000000000000000000000000000000000000000000000006020830152604082019050919050565b6000612257601983612aa8565b91507f4552433732313a20617070726f766520746f2063616c6c6572000000000000006000830152602082019050919050565b6000612297602c83612aa8565b91507f4552433732313a206f70657261746f7220717565727920666f72206e6f6e657860008301527f697374656e7420746f6b656e00000000000000000000000000000000000000006020830152604082019050919050565b60006122fd603883612aa8565b91507f4552433732313a20617070726f76652063616c6c6572206973206e6f74206f7760008301527f6e6572206e6f7220617070726f76656420666f7220616c6c00000000000000006020830152604082019050919050565b6000612363602a83612aa8565b91507f4552433732313a2062616c616e636520717565727920666f7220746865207a6560008301527f726f2061646472657373000000000000000000000000000000000000000000006020830152604082019050919050565b60006123c9602983612aa8565b91507f4552433732313a206f776e657220717565727920666f72206e6f6e657869737460008301527f656e7420746f6b656e00000000000000000000000000000000000000000000006020830152604082019050919050565b600061242f602083612aa8565b91507f4552433732313a206d696e7420746f20746865207a65726f20616464726573736000830152602082019050919050565b600061246f602c83612aa8565b91507f4552433732313a20617070726f76656420717565727920666f72206e6f6e657860008301527f697374656e7420746f6b656e00000000000000000000000000000000000000006020830152604082019050919050565b60006124d5602083612aa8565b91507f4f776e61626c653a2063616c6c6572206973206e6f7420746865206f776e65726000830152602082019050919050565b6000612515602983612aa8565b91507f4552433732313a207472616e73666572206f6620746f6b656e2074686174206960008301527f73206e6f74206f776e00000000000000000000000000000000000000000000006020830152604082019050919050565b600061257b602f83612aa8565b91507f4552433732314d657461646174613a2055524920717565727920666f72206e6f60008301527f6e6578697374656e7420746f6b656e00000000000000000000000000000000006020830152604082019050919050565b60006125e1602183612aa8565b91507f4552433732313a20617070726f76616c20746f2063757272656e74206f776e6560008301527f72000000000000000000000000000000000000000000000000000000000000006020830152604082019050919050565b6000612647603183612aa8565b91507f4552433732313a207472616e736665722063616c6c6572206973206e6f74206f60008301527f776e6572206e6f7220617070726f7665640000000000000000000000000000006020830152604082019050919050565b6080820160008201516126b66000850182612713565b5060208201516126c96020850182612713565b5060408201516126dc60408501826126f5565b5060608201516126ef60608501826126f5565b50505050565b6126fe81612be9565b82525050565b61270d81612be9565b82525050565b61271c81612bf3565b82525050565b600061272e82856120a7565b915061273a82846120a7565b91508190509392505050565b600060208201905061275b6000830184612017565b92915050565b60006080820190506127766000830187612017565b6127836020830186612017565b6127906040830185612704565b81810360608301526127a28184612035565b905095945050505050565b60006020820190506127c26000830184612026565b92915050565b600060208201905081810360008301526127e2818461206e565b905092915050565b60006020820190508181036000830152612803816120d8565b9050919050565b600060208201905081810360008301526128238161213e565b9050919050565b60006020820190508181036000830152612843816121a4565b9050919050565b60006020820190508181036000830152612863816121e4565b9050919050565b600060208201905081810360008301526128838161224a565b9050919050565b600060208201905081810360008301526128a38161228a565b9050919050565b600060208201905081810360008301526128c3816122f0565b9050919050565b600060208201905081810360008301526128e381612356565b9050919050565b60006020820190508181036000830152612903816123bc565b9050919050565b6000602082019050818103600083015261292381612422565b9050919050565b6000602082019050818103600083015261294381612462565b9050919050565b60006020820190508181036000830152612963816124c8565b9050919050565b6000602082019050818103600083015261298381612508565b9050919050565b600060208201905081810360008301526129a38161256e565b9050919050565b600060208201905081810360008301526129c3816125d4565b9050919050565b600060208201905081810360008301526129e38161263a565b9050919050565b60006080820190506129ff60008301846126a0565b92915050565b6000602082019050612a1a6000830184612704565b92915050565b6000604051905081810181811067ffffffffffffffff82111715612a4757612a46612d7b565b5b8060405250919050565b600067ffffffffffffffff821115612a6c57612a6b612d7b565b5b601f19601f8301169050602081019050919050565b600081519050919050565b600081519050919050565b600082825260208201905092915050565b600082825260208201905092915050565b600081905092915050565b6000612acf82612be9565b9150612ada83612be9565b9250827fffffffffffffffffffffffffffffffffffffffffffffffffffffffffffffffff03821115612b0f57612b0e612cee565b5b828201905092915050565b6000612b2582612be9565b9150612b3083612be9565b925082612b4057612b3f612d1d565b5b828204905092915050565b6000612b5682612be9565b9150612b6183612be9565b925082821015612b7457612b73612cee565b5b828203905092915050565b6000612b8a82612bc9565b9050919050565b60008115159050919050565b60007fffffffff0000000000000000000000000000000000000000000000000000000082169050919050565b600073ffffffffffffffffffffffffffffffffffffffff82169050919050565b6000819050919050565b600060ff82169050919050565b82818337600083830152505050565b60005b83811015612c2d578082015181840152602081019050612c12565b83811115612c3c576000848401525b50505050565b60006002820490506001821680612c5a57607f821691505b60208210811415612c6e57612c6d612d4c565b5b50919050565b6000612c7f82612be9565b91507fffffffffffffffffffffffffffffffffffffffffffffffffffffffffffffffff821415612cb257612cb1612cee565b5b600182019050919050565b6000612cc882612be9565b9150612cd383612be9565b925082612ce357612ce2612d1d565b5b828206905092915050565b7f4e487b7100000000000000000000000000000000000000000000000000000000600052601160045260246000fd5b7f4e487b7100000000000000000000000000000000000000000000000000000000600052601260045260246000fd5b7f4e487b7100000000000000000000000000000000000000000000000000000000600052602260045260246000fd5b7f4e487b7100000000000000000000000000000000000000000000000000000000600052604160045260246000fd5b6000601f19601f8301169050919050565b612dc481612b7f565b8114612dcf57600080fd5b50565b612ddb81612b91565b8114612de657600080fd5b50565b612df281612b9d565b8114612dfd57600080fd5b50565b612e0981612be9565b8114612e1457600080fd5b50565b612e2081612bf3565b8114612e2b57600080fd5b5056fea26469706673582212209119356fd173f0106c5b1d02328c2c1d4a3d8571c4f99ea90e22155557a0803e64736f6c63430008000033",
  "immutableReferences": {},
  "source": "pragma solidity 0.8.0;\r\n\r\nimport \"../node_modules/@openzeppelin/contracts/token/ERC721/ERC721.sol\";\r\nimport \"../node_modules/@openzeppelin/contracts/access/Ownable.sol\";\r\n\r\ncontract Token is ERC721, Ownable {\r\n  struct Pet {\r\n    uint8 damage;\r\n    uint8 magic;\r\n    uint256 lastMeal;\r\n    uint256 endurance;\r\n  }\r\n  uint256 nextId = 0;\r\n\r\n  mapping(uint256 => Pet) private _tokenDetails;\r\n  constructor(string memory name, string memory symbol) ERC721(name, symbol){\r\n\r\n  }\r\n\r\n  function getTokenDetails(uint256 tokenId) public view returns (Pet memory){\r\n    return _tokenDetails[tokenId];\r\n  }\r\n\r\n  function mint(uint8 damage, uint8 magic, uint256 endurance) public onlyOwner {\r\n    _tokenDetails[nextId] = Pet(magic, damage, block.timestamp, endurance);\r\n    _safeMint(msg.sender, nextId);\r\n    nextId++;\r\n  }\r\n\r\n  function feed(uint256 tokenId) public {\r\n    Pet storage pet = _tokenDetails[nextId];\r\n    require(pet.lastMeal + pet.endurance > block.timestamp);\r\n    pet.lastMeal = block.timestamp;\r\n  }\r\n\r\n  function _beforeTokenTransfer(address from, address to, uint256 tokenId) internal override {\r\n    Pet storage pet = _tokenDetails[nextId];\r\n    require(pet.lastMeal + pet.endurance > block.timestamp); // Pet is stil alive\r\n  }\r\n\r\n}\r\n",
  "sourcePath": "C:/Users/DeOliW20137/Documents/GitHub/Moralis_NFT/contracts/Token.sol",
  "compiler": {
    "name": "solc",
    "version": "0.8.0+commit.c7dfd78e.Emscripten.clang"
  },
  "schemaVersion": "3.3.4",
  "updatedAt": "2021-04-02T20:28:21.459Z",
  "networkType": "ethereum",
  "devdoc": {
    "kind": "dev",
    "methods": {
      "approve(address,uint256)": {
        "details": "See {IERC721-approve}."
      },
      "balanceOf(address)": {
        "details": "See {IERC721-balanceOf}."
      },
      "getApproved(uint256)": {
        "details": "See {IERC721-getApproved}."
      },
      "isApprovedForAll(address,address)": {
        "details": "See {IERC721-isApprovedForAll}."
      },
      "name()": {
        "details": "See {IERC721Metadata-name}."
      },
      "owner()": {
        "details": "Returns the address of the current owner."
      },
      "ownerOf(uint256)": {
        "details": "See {IERC721-ownerOf}."
      },
      "renounceOwnership()": {
        "details": "Leaves the contract without owner. It will not be possible to call `onlyOwner` functions anymore. Can only be called by the current owner. NOTE: Renouncing ownership will leave the contract without an owner, thereby removing any functionality that is only available to the owner."
      },
      "safeTransferFrom(address,address,uint256)": {
        "details": "See {IERC721-safeTransferFrom}."
      },
      "safeTransferFrom(address,address,uint256,bytes)": {
        "details": "See {IERC721-safeTransferFrom}."
      },
      "setApprovalForAll(address,bool)": {
        "details": "See {IERC721-setApprovalForAll}."
      },
      "supportsInterface(bytes4)": {
        "details": "See {IERC165-supportsInterface}."
      },
      "symbol()": {
        "details": "See {IERC721Metadata-symbol}."
      },
      "tokenURI(uint256)": {
        "details": "See {IERC721Metadata-tokenURI}."
      },
      "transferFrom(address,address,uint256)": {
        "details": "See {IERC721-transferFrom}."
      },
      "transferOwnership(address)": {
        "details": "Transfers ownership of the contract to a new account (`newOwner`). Can only be called by the current owner."
      }
    },
    "version": 1
  },
  "userdoc": {
    "kind": "user",
    "methods": {},
    "version": 1
  }
}