{
  "contractName": "Token",
  "abi": [
    {
      "inputs": [
        {
          "internalType": "string",
          "name": "name",
          "type": "string"
        },
        {
          "internalType": "string",
          "name": "symbol",
          "type": "string"
        }
      ],
      "stateMutability": "nonpayable",
      "type": "constructor"
    },
    {
      "anonymous": false,
      "inputs": [
        {
          "indexed": true,
          "internalType": "address",
          "name": "owner",
          "type": "address"
        },
        {
          "indexed": true,
          "internalType": "address",
          "name": "approved",
          "type": "address"
        },
        {
          "indexed": true,
          "internalType": "uint256",
          "name": "tokenId",
          "type": "uint256"
        }
      ],
      "name": "Approval",
      "type": "event"
    },
    {
      "anonymous": false,
      "inputs": [
        {
          "indexed": true,
          "internalType": "address",
          "name": "owner",
          "type": "address"
        },
        {
          "indexed": true,
          "internalType": "address",
          "name": "operator",
          "type": "address"
        },
        {
          "indexed": false,
          "internalType": "bool",
          "name": "approved",
          "type": "bool"
        }
      ],
      "name": "ApprovalForAll",
      "type": "event"
    },
    {
      "anonymous": false,
      "inputs": [
        {
          "indexed": true,
          "internalType": "address",
          "name": "previousOwner",
          "type": "address"
        },
        {
          "indexed": true,
          "internalType": "address",
          "name": "newOwner",
          "type": "address"
        }
      ],
      "name": "OwnershipTransferred",
      "type": "event"
    },
    {
      "anonymous": false,
      "inputs": [
        {
          "indexed": true,
          "internalType": "address",
          "name": "from",
          "type": "address"
        },
        {
          "indexed": true,
          "internalType": "address",
          "name": "to",
          "type": "address"
        },
        {
          "indexed": true,
          "internalType": "uint256",
          "name": "tokenId",
          "type": "uint256"
        }
      ],
      "name": "Transfer",
      "type": "event"
    },
    {
      "inputs": [
        {
          "internalType": "address",
          "name": "to",
          "type": "address"
        },
        {
          "internalType": "uint256",
          "name": "tokenId",
          "type": "uint256"
        }
      ],
      "name": "approve",
      "outputs": [],
      "stateMutability": "nonpayable",
      "type": "function"
    },
    {
      "inputs": [
        {
          "internalType": "address",
          "name": "owner",
          "type": "address"
        }
      ],
      "name": "balanceOf",
      "outputs": [
        {
          "internalType": "uint256",
          "name": "",
          "type": "uint256"
        }
      ],
      "stateMutability": "view",
      "type": "function"
    },
    {
      "inputs": [
        {
          "internalType": "uint256",
          "name": "tokenId",
          "type": "uint256"
        }
      ],
      "name": "getApproved",
      "outputs": [
        {
          "internalType": "address",
          "name": "",
          "type": "address"
        }
      ],
      "stateMutability": "view",
      "type": "function"
    },
    {
      "inputs": [
        {
          "internalType": "address",
          "name": "owner",
          "type": "address"
        },
        {
          "internalType": "address",
          "name": "operator",
          "type": "address"
        }
      ],
      "name": "isApprovedForAll",
      "outputs": [
        {
          "internalType": "bool",
          "name": "",
          "type": "bool"
        }
      ],
      "stateMutability": "view",
      "type": "function"
    },
    {
      "inputs": [],
      "name": "name",
      "outputs": [
        {
          "internalType": "string",
          "name": "",
          "type": "string"
        }
      ],
      "stateMutability": "view",
      "type": "function"
    },
    {
      "inputs": [],
      "name": "owner",
      "outputs": [
        {
          "internalType": "address",
          "name": "",
          "type": "address"
        }
      ],
      "stateMutability": "view",
      "type": "function"
    },
    {
      "inputs": [
        {
          "internalType": "uint256",
          "name": "tokenId",
          "type": "uint256"
        }
      ],
      "name": "ownerOf",
      "outputs": [
        {
          "internalType": "address",
          "name": "",
          "type": "address"
        }
      ],
      "stateMutability": "view",
      "type": "function"
    },
    {
      "inputs": [],
      "name": "renounceOwnership",
      "outputs": [],
      "stateMutability": "nonpayable",
      "type": "function"
    },
    {
      "inputs": [
        {
          "internalType": "address",
          "name": "from",
          "type": "address"
        },
        {
          "internalType": "address",
          "name": "to",
          "type": "address"
        },
        {
          "internalType": "uint256",
          "name": "tokenId",
          "type": "uint256"
        }
      ],
      "name": "safeTransferFrom",
      "outputs": [],
      "stateMutability": "nonpayable",
      "type": "function"
    },
    {
      "inputs": [
        {
          "internalType": "address",
          "name": "from",
          "type": "address"
        },
        {
          "internalType": "address",
          "name": "to",
          "type": "address"
        },
        {
          "internalType": "uint256",
          "name": "tokenId",
          "type": "uint256"
        },
        {
          "internalType": "bytes",
          "name": "_data",
          "type": "bytes"
        }
      ],
      "name": "safeTransferFrom",
      "outputs": [],
      "stateMutability": "nonpayable",
      "type": "function"
    },
    {
      "inputs": [
        {
          "internalType": "address",
          "name": "operator",
          "type": "address"
        },
        {
          "internalType": "bool",
          "name": "approved",
          "type": "bool"
        }
      ],
      "name": "setApprovalForAll",
      "outputs": [],
      "stateMutability": "nonpayable",
      "type": "function"
    },
    {
      "inputs": [
        {
          "internalType": "bytes4",
          "name": "interfaceId",
          "type": "bytes4"
        }
      ],
      "name": "supportsInterface",
      "outputs": [
        {
          "internalType": "bool",
          "name": "",
          "type": "bool"
        }
      ],
      "stateMutability": "view",
      "type": "function"
    },
    {
      "inputs": [],
      "name": "symbol",
      "outputs": [
        {
          "internalType": "string",
          "name": "",
          "type": "string"
        }
      ],
      "stateMutability": "view",
      "type": "function"
    },
    {
      "inputs": [
        {
          "internalType": "uint256",
          "name": "tokenId",
          "type": "uint256"
        }
      ],
      "name": "tokenURI",
      "outputs": [
        {
          "internalType": "string",
          "name": "",
          "type": "string"
        }
      ],
      "stateMutability": "view",
      "type": "function"
    },
    {
      "inputs": [
        {
          "internalType": "address",
          "name": "from",
          "type": "address"
        },
        {
          "internalType": "address",
          "name": "to",
          "type": "address"
        },
        {
          "internalType": "uint256",
          "name": "tokenId",
          "type": "uint256"
        }
      ],
      "name": "transferFrom",
      "outputs": [],
      "stateMutability": "nonpayable",
      "type": "function"
    },
    {
      "inputs": [
        {
          "internalType": "address",
          "name": "newOwner",
          "type": "address"
        }
      ],
      "name": "transferOwnership",
      "outputs": [],
      "stateMutability": "nonpayable",
      "type": "function"
    },
    {
      "inputs": [
        {
          "internalType": "uint8",
          "name": "damage",
          "type": "uint8"
        },
        {
          "internalType": "uint8",
          "name": "magic",
          "type": "uint8"
        },
        {
          "internalType": "uint8",
          "name": "endurance",
          "type": "uint8"
        }
      ],
      "name": "mint",
      "outputs": [],
      "stateMutability": "nonpayable",
      "type": "function"
    },
    {
      "inputs": [
        {
          "internalType": "uint256",
          "name": "tokenId",
          "type": "uint256"
        }
      ],
      "name": "feed",
      "outputs": [],
      "stateMutability": "nonpayable",
      "type": "function"
    }
  ],
  "bytecode": "0x608060405260006007553480156200001657600080fd5b50604051620030fe380380620030fe83398181016040528101906200003c919062000255565b818181600090805190602001906200005692919062000133565b5080600190805190602001906200006f92919062000133565b5050506000620000846200012b60201b60201c565b905080600660006101000a81548173ffffffffffffffffffffffffffffffffffffffff021916908373ffffffffffffffffffffffffffffffffffffffff1602179055508073ffffffffffffffffffffffffffffffffffffffff16600073ffffffffffffffffffffffffffffffffffffffff167f8be0079c531659141344cd1fd0a4f28419497f9722a3daafe3b4186f6b6457e060405160405180910390a3505050620003f9565b600033905090565b828054620001419062000365565b90600052602060002090601f016020900481019282620001655760008555620001b1565b82601f106200018057805160ff1916838001178555620001b1565b82800160010185558215620001b1579182015b82811115620001b057825182559160200191906001019062000193565b5b509050620001c09190620001c4565b5090565b5b80821115620001df576000816000905550600101620001c5565b5090565b6000620001fa620001f484620002fc565b620002c8565b9050828152602081018484840111156200021357600080fd5b620002208482856200032f565b509392505050565b600082601f8301126200023a57600080fd5b81516200024c848260208601620001e3565b91505092915050565b600080604083850312156200026957600080fd5b600083015167ffffffffffffffff8111156200028457600080fd5b620002928582860162000228565b925050602083015167ffffffffffffffff811115620002b057600080fd5b620002be8582860162000228565b9150509250929050565b6000604051905081810181811067ffffffffffffffff82111715620002f257620002f1620003ca565b5b8060405250919050565b600067ffffffffffffffff8211156200031a5762000319620003ca565b5b601f19601f8301169050602081019050919050565b60005b838110156200034f57808201518184015260208101905062000332565b838111156200035f576000848401525b50505050565b600060028204905060018216806200037e57607f821691505b602082108114156200039557620003946200039b565b5b50919050565b7f4e487b7100000000000000000000000000000000000000000000000000000000600052602260045260246000fd5b7f4e487b7100000000000000000000000000000000000000000000000000000000600052604160045260246000fd5b612cf580620004096000396000f3fe608060405234801561001057600080fd5b50600436106101165760003560e01c80638da5cb5b116100a2578063c87b56dd11610071578063c87b56dd146102cb578063e6f12af9146102fb578063e985e9c514610317578063f2fde38b14610347578063f59dfdfb1461036357610116565b80638da5cb5b1461025757806395d89b4114610275578063a22cb46514610293578063b88d4fde146102af57610116565b806323b872dd116100e957806323b872dd146101b557806342842e0e146101d15780636352211e146101ed57806370a082311461021d578063715018a61461024d57610116565b806301ffc9a71461011b57806306fdde031461014b578063081812fc14610169578063095ea7b314610199575b600080fd5b61013560048036038101906101309190611e6c565b61037f565b6040516101429190612659565b60405180910390f35b610153610461565b6040516101609190612674565b60405180910390f35b610183600480360381019061017e9190611ebe565b6104f3565b60405161019091906125f2565b60405180910390f35b6101b360048036038101906101ae9190611e30565b610578565b005b6101cf60048036038101906101ca9190611d2a565b610690565b005b6101eb60048036038101906101e69190611d2a565b6106f0565b005b61020760048036038101906102029190611ebe565b610710565b60405161021491906125f2565b60405180910390f35b61023760048036038101906102329190611cc5565b6107c2565b6040516102449190612896565b60405180910390f35b61025561087a565b005b61025f6109b7565b60405161026c91906125f2565b60405180910390f35b61027d6109e1565b60405161028a9190612674565b60405180910390f35b6102ad60048036038101906102a89190611df4565b610a73565b005b6102c960048036038101906102c49190611d79565b610bf4565b005b6102e560048036038101906102e09190611ebe565b610c56565b6040516102f29190612674565b60405180910390f35b61031560048036038101906103109190611ee7565b610cfd565b005b610331600480360381019061032c9190611cee565b610e3a565b60405161033e9190612659565b60405180910390f35b610361600480360381019061035c9190611cc5565b610ece565b005b61037d60048036038101906103789190611ebe565b61107a565b005b60007f80ac58cd000000000000000000000000000000000000000000000000000000007bffffffffffffffffffffffffffffffffffffffffffffffffffffffff1916827bffffffffffffffffffffffffffffffffffffffffffffffffffffffff1916148061044a57507f5b5e139f000000000000000000000000000000000000000000000000000000007bffffffffffffffffffffffffffffffffffffffffffffffffffffffff1916827bffffffffffffffffffffffffffffffffffffffffffffffffffffffff1916145b8061045a5750610459826110bf565b5b9050919050565b60606000805461047090612ad3565b80601f016020809104026020016040519081016040528092919081815260200182805461049c90612ad3565b80156104e95780601f106104be576101008083540402835291602001916104e9565b820191906000526020600020905b8154815290600101906020018083116104cc57829003601f168201915b5050505050905090565b60006104fe82611129565b61053d576040517f08c379a0000000000000000000000000000000000000000000000000000000008152600401610534906127d6565b60405180910390fd5b6004600083815260200190815260200160002060009054906101000a900473ffffffffffffffffffffffffffffffffffffffff169050919050565b600061058382610710565b90508073ffffffffffffffffffffffffffffffffffffffff168373ffffffffffffffffffffffffffffffffffffffff1614156105f4576040517f08c379a00000000000000000000000000000000000000000000000000000000081526004016105eb90612856565b60405180910390fd5b8073ffffffffffffffffffffffffffffffffffffffff16610613611195565b73ffffffffffffffffffffffffffffffffffffffff16148061064257506106418161063c611195565b610e3a565b5b610681576040517f08c379a000000000000000000000000000000000000000000000000000000000815260040161067890612756565b60405180910390fd5b61068b838361119d565b505050565b6106a161069b611195565b82611256565b6106e0576040517f08c379a00000000000000000000000000000000000000000000000000000000081526004016106d790612876565b60405180910390fd5b6106eb838383611334565b505050565b61070b83838360405180602001604052806000815250610bf4565b505050565b6000806002600084815260200190815260200160002060009054906101000a900473ffffffffffffffffffffffffffffffffffffffff169050600073ffffffffffffffffffffffffffffffffffffffff168173ffffffffffffffffffffffffffffffffffffffff1614156107b9576040517f08c379a00000000000000000000000000000000000000000000000000000000081526004016107b090612796565b60405180910390fd5b80915050919050565b60008073ffffffffffffffffffffffffffffffffffffffff168273ffffffffffffffffffffffffffffffffffffffff161415610833576040517f08c379a000000000000000000000000000000000000000000000000000000000815260040161082a90612776565b60405180910390fd5b600360008373ffffffffffffffffffffffffffffffffffffffff1673ffffffffffffffffffffffffffffffffffffffff168152602001908152602001600020549050919050565b610882611195565b73ffffffffffffffffffffffffffffffffffffffff166108a06109b7565b73ffffffffffffffffffffffffffffffffffffffff16146108f6576040517f08c379a00000000000000000000000000000000000000000000000000000000081526004016108ed906127f6565b60405180910390fd5b600073ffffffffffffffffffffffffffffffffffffffff16600660009054906101000a900473ffffffffffffffffffffffffffffffffffffffff1673ffffffffffffffffffffffffffffffffffffffff167f8be0079c531659141344cd1fd0a4f28419497f9722a3daafe3b4186f6b6457e060405160405180910390a36000600660006101000a81548173ffffffffffffffffffffffffffffffffffffffff021916908373ffffffffffffffffffffffffffffffffffffffff160217905550565b6000600660009054906101000a900473ffffffffffffffffffffffffffffffffffffffff16905090565b6060600180546109f090612ad3565b80601f0160208091040260200160405190810160405280929190818152602001828054610a1c90612ad3565b8015610a695780601f10610a3e57610100808354040283529160200191610a69565b820191906000526020600020905b815481529060010190602001808311610a4c57829003601f168201915b5050505050905090565b610a7b611195565b73ffffffffffffffffffffffffffffffffffffffff168273ffffffffffffffffffffffffffffffffffffffff161415610ae9576040517f08c379a0000000000000000000000000000000000000000000000000000000008152600401610ae090612716565b60405180910390fd5b8060056000610af6611195565b73ffffffffffffffffffffffffffffffffffffffff1673ffffffffffffffffffffffffffffffffffffffff16815260200190815260200160002060008473ffffffffffffffffffffffffffffffffffffffff1673ffffffffffffffffffffffffffffffffffffffff16815260200190815260200160002060006101000a81548160ff0219169083151502179055508173ffffffffffffffffffffffffffffffffffffffff16610ba3611195565b73ffffffffffffffffffffffffffffffffffffffff167f17307eab39ab6107e8899845ad3d59bd9653f200f220920489ca2b5937696c3183604051610be89190612659565b60405180910390a35050565b610c05610bff611195565b83611256565b610c44576040517f08c379a0000000000000000000000000000000000000000000000000000000008152600401610c3b90612876565b60405180910390fd5b610c5084848484611590565b50505050565b6060610c6182611129565b610ca0576040517f08c379a0000000000000000000000000000000000000000000000000000000008152600401610c9790612836565b60405180910390fd5b6000610caa6115ec565b90506000815111610cca5760405180602001604052806000815250610cf5565b80610cd484611603565b604051602001610ce59291906125ce565b6040516020818303038152906040525b915050919050565b610d05611195565b73ffffffffffffffffffffffffffffffffffffffff16610d236109b7565b73ffffffffffffffffffffffffffffffffffffffff1614610d79576040517f08c379a0000000000000000000000000000000000000000000000000000000008152600401610d70906127f6565b60405180910390fd5b60405180608001604052808360ff1681526020018460ff1681526020014281526020018260ff1681525060086000600754815260200190815260200160002060008201518160000160006101000a81548160ff021916908360ff16021790555060208201518160000160016101000a81548160ff021916908360ff1602179055506040820151816001015560608201518160020155905050610e1d336007546117b0565b60076000815480929190610e3090612b05565b9190505550505050565b6000600560008473ffffffffffffffffffffffffffffffffffffffff1673ffffffffffffffffffffffffffffffffffffffff16815260200190815260200160002060008373ffffffffffffffffffffffffffffffffffffffff1673ffffffffffffffffffffffffffffffffffffffff16815260200190815260200160002060009054906101000a900460ff16905092915050565b610ed6611195565b73ffffffffffffffffffffffffffffffffffffffff16610ef46109b7565b73ffffffffffffffffffffffffffffffffffffffff1614610f4a576040517f08c379a0000000000000000000000000000000000000000000000000000000008152600401610f41906127f6565b60405180910390fd5b600073ffffffffffffffffffffffffffffffffffffffff168173ffffffffffffffffffffffffffffffffffffffff161415610fba576040517f08c379a0000000000000000000000000000000000000000000000000000000008152600401610fb1906126b6565b60405180910390fd5b8073ffffffffffffffffffffffffffffffffffffffff16600660009054906101000a900473ffffffffffffffffffffffffffffffffffffffff1673ffffffffffffffffffffffffffffffffffffffff167f8be0079c531659141344cd1fd0a4f28419497f9722a3daafe3b4186f6b6457e060405160405180910390a380600660006101000a81548173ffffffffffffffffffffffffffffffffffffffff021916908373ffffffffffffffffffffffffffffffffffffffff16021790555050565b6000600860006007548152602001908152602001600020905042816002015482600101546110a89190612955565b116110b257600080fd5b4281600101819055505050565b60007f01ffc9a7000000000000000000000000000000000000000000000000000000007bffffffffffffffffffffffffffffffffffffffffffffffffffffffff1916827bffffffffffffffffffffffffffffffffffffffffffffffffffffffff1916149050919050565b60008073ffffffffffffffffffffffffffffffffffffffff166002600084815260200190815260200160002060009054906101000a900473ffffffffffffffffffffffffffffffffffffffff1673ffffffffffffffffffffffffffffffffffffffff1614159050919050565b600033905090565b816004600083815260200190815260200160002060006101000a81548173ffffffffffffffffffffffffffffffffffffffff021916908373ffffffffffffffffffffffffffffffffffffffff160217905550808273ffffffffffffffffffffffffffffffffffffffff1661121083610710565b73ffffffffffffffffffffffffffffffffffffffff167f8c5be1e5ebec7d5bd14f71427d1e84f3dd0314c0f7b2291e5b200ac8c7c3b92560405160405180910390a45050565b600061126182611129565b6112a0576040517f08c379a000000000000000000000000000000000000000000000000000000000815260040161129790612736565b60405180910390fd5b60006112ab83610710565b90508073ffffffffffffffffffffffffffffffffffffffff168473ffffffffffffffffffffffffffffffffffffffff16148061131a57508373ffffffffffffffffffffffffffffffffffffffff16611302846104f3565b73ffffffffffffffffffffffffffffffffffffffff16145b8061132b575061132a8185610e3a565b5b91505092915050565b8273ffffffffffffffffffffffffffffffffffffffff1661135482610710565b73ffffffffffffffffffffffffffffffffffffffff16146113aa576040517f08c379a00000000000000000000000000000000000000000000000000000000081526004016113a190612816565b60405180910390fd5b600073ffffffffffffffffffffffffffffffffffffffff168273ffffffffffffffffffffffffffffffffffffffff16141561141a576040517f08c379a0000000000000000000000000000000000000000000000000000000008152600401611411906126f6565b60405180910390fd5b6114258383836117ce565b61143060008261119d565b6001600360008573ffffffffffffffffffffffffffffffffffffffff1673ffffffffffffffffffffffffffffffffffffffff168152602001908152602001600020600082825461148091906129dc565b925050819055506001600360008473ffffffffffffffffffffffffffffffffffffffff1673ffffffffffffffffffffffffffffffffffffffff16815260200190815260200160002060008282546114d79190612955565b92505081905550816002600083815260200190815260200160002060006101000a81548173ffffffffffffffffffffffffffffffffffffffff021916908373ffffffffffffffffffffffffffffffffffffffff160217905550808273ffffffffffffffffffffffffffffffffffffffff168473ffffffffffffffffffffffffffffffffffffffff167fddf252ad1be2c89b69c2b068fc378daa952ba7f163c4a11628f55a4df523b3ef60405160405180910390a4505050565b61159b848484611334565b6115a78484848461180c565b6115e6576040517f08c379a00000000000000000000000000000000000000000000000000000000081526004016115dd90612696565b60405180910390fd5b50505050565b606060405180602001604052806000815250905090565b6060600082141561164b576040518060400160405280600181526020017f300000000000000000000000000000000000000000000000000000000000000081525090506117ab565b600082905060005b6000821461167d57808061166690612b05565b915050600a8261167691906129ab565b9150611653565b60008167ffffffffffffffff8111156116bf577f4e487b7100000000000000000000000000000000000000000000000000000000600052604160045260246000fd5b6040519080825280601f01601f1916602001820160405280156116f15781602001600182028036833780820191505090505b5090505b600085146117a45760018261170a91906129dc565b9150600a856117199190612b4e565b60306117259190612955565b60f81b818381518110611761577f4e487b7100000000000000000000000000000000000000000000000000000000600052603260045260246000fd5b60200101907effffffffffffffffffffffffffffffffffffffffffffffffffffffffffffff1916908160001a905350600a8561179d91906129ab565b94506116f5565b8093505050505b919050565b6117ca8282604051806020016040528060008152506119a3565b5050565b6000600860006007548152602001908152602001600020905042816002015482600101546117fc9190612955565b1161180657600080fd5b50505050565b600061182d8473ffffffffffffffffffffffffffffffffffffffff166119fe565b15611996578373ffffffffffffffffffffffffffffffffffffffff1663150b7a02611856611195565b8786866040518563ffffffff1660e01b8152600401611878949392919061260d565b602060405180830381600087803b15801561189257600080fd5b505af19250505080156118c357506040513d601f19601f820116820180604052508101906118c09190611e95565b60015b611946573d80600081146118f3576040519150601f19603f3d011682016040523d82523d6000602084013e6118f8565b606091505b5060008151141561193e576040517f08c379a000000000000000000000000000000000000000000000000000000000815260040161193590612696565b60405180910390fd5b805181602001fd5b63150b7a0260e01b7bffffffffffffffffffffffffffffffffffffffffffffffffffffffff1916817bffffffffffffffffffffffffffffffffffffffffffffffffffffffff19161491505061199b565b600190505b949350505050565b6119ad8383611a11565b6119ba600084848461180c565b6119f9576040517f08c379a00000000000000000000000000000000000000000000000000000000081526004016119f090612696565b60405180910390fd5b505050565b600080823b905060008111915050919050565b600073ffffffffffffffffffffffffffffffffffffffff168273ffffffffffffffffffffffffffffffffffffffff161415611a81576040517f08c379a0000000000000000000000000000000000000000000000000000000008152600401611a78906127b6565b60405180910390fd5b611a8a81611129565b15611aca576040517f08c379a0000000000000000000000000000000000000000000000000000000008152600401611ac1906126d6565b60405180910390fd5b611ad6600083836117ce565b6001600360008473ffffffffffffffffffffffffffffffffffffffff1673ffffffffffffffffffffffffffffffffffffffff1681526020019081526020016000206000828254611b269190612955565b92505081905550816002600083815260200190815260200160002060006101000a81548173ffffffffffffffffffffffffffffffffffffffff021916908373ffffffffffffffffffffffffffffffffffffffff160217905550808273ffffffffffffffffffffffffffffffffffffffff16600073ffffffffffffffffffffffffffffffffffffffff167fddf252ad1be2c89b69c2b068fc378daa952ba7f163c4a11628f55a4df523b3ef60405160405180910390a45050565b6000611bf2611bed846128e2565b6128b1565b905082815260208101848484011115611c0a57600080fd5b611c15848285612a91565b509392505050565b600081359050611c2c81612c4c565b92915050565b600081359050611c4181612c63565b92915050565b600081359050611c5681612c7a565b92915050565b600081519050611c6b81612c7a565b92915050565b600082601f830112611c8257600080fd5b8135611c92848260208601611bdf565b91505092915050565b600081359050611caa81612c91565b92915050565b600081359050611cbf81612ca8565b92915050565b600060208284031215611cd757600080fd5b6000611ce584828501611c1d565b91505092915050565b60008060408385031215611d0157600080fd5b6000611d0f85828601611c1d565b9250506020611d2085828601611c1d565b9150509250929050565b600080600060608486031215611d3f57600080fd5b6000611d4d86828701611c1d565b9350506020611d5e86828701611c1d565b9250506040611d6f86828701611c9b565b9150509250925092565b60008060008060808587031215611d8f57600080fd5b6000611d9d87828801611c1d565b9450506020611dae87828801611c1d565b9350506040611dbf87828801611c9b565b925050606085013567ffffffffffffffff811115611ddc57600080fd5b611de887828801611c71565b91505092959194509250565b60008060408385031215611e0757600080fd5b6000611e1585828601611c1d565b9250506020611e2685828601611c32565b9150509250929050565b60008060408385031215611e4357600080fd5b6000611e5185828601611c1d565b9250506020611e6285828601611c9b565b9150509250929050565b600060208284031215611e7e57600080fd5b6000611e8c84828501611c47565b91505092915050565b600060208284031215611ea757600080fd5b6000611eb584828501611c5c565b91505092915050565b600060208284031215611ed057600080fd5b6000611ede84828501611c9b565b91505092915050565b600080600060608486031215611efc57600080fd5b6000611f0a86828701611cb0565b9350506020611f1b86828701611cb0565b9250506040611f2c86828701611cb0565b9150509250925092565b611f3f81612a10565b82525050565b611f4e81612a22565b82525050565b6000611f5f82612912565b611f698185612928565b9350611f79818560208601612aa0565b611f8281612c3b565b840191505092915050565b6000611f988261291d565b611fa28185612939565b9350611fb2818560208601612aa0565b611fbb81612c3b565b840191505092915050565b6000611fd18261291d565b611fdb818561294a565b9350611feb818560208601612aa0565b80840191505092915050565b6000612004603283612939565b91507f4552433732313a207472616e7366657220746f206e6f6e20455243373231526560008301527f63656976657220696d706c656d656e74657200000000000000000000000000006020830152604082019050919050565b600061206a602683612939565b91507f4f776e61626c653a206e6577206f776e657220697320746865207a65726f206160008301527f64647265737300000000000000000000000000000000000000000000000000006020830152604082019050919050565b60006120d0601c83612939565b91507f4552433732313a20746f6b656e20616c7265616479206d696e746564000000006000830152602082019050919050565b6000612110602483612939565b91507f4552433732313a207472616e7366657220746f20746865207a65726f2061646460008301527f72657373000000000000000000000000000000000000000000000000000000006020830152604082019050919050565b6000612176601983612939565b91507f4552433732313a20617070726f766520746f2063616c6c6572000000000000006000830152602082019050919050565b60006121b6602c83612939565b91507f4552433732313a206f70657261746f7220717565727920666f72206e6f6e657860008301527f697374656e7420746f6b656e00000000000000000000000000000000000000006020830152604082019050919050565b600061221c603883612939565b91507f4552433732313a20617070726f76652063616c6c6572206973206e6f74206f7760008301527f6e6572206e6f7220617070726f76656420666f7220616c6c00000000000000006020830152604082019050919050565b6000612282602a83612939565b91507f4552433732313a2062616c616e636520717565727920666f7220746865207a6560008301527f726f2061646472657373000000000000000000000000000000000000000000006020830152604082019050919050565b60006122e8602983612939565b91507f4552433732313a206f776e657220717565727920666f72206e6f6e657869737460008301527f656e7420746f6b656e00000000000000000000000000000000000000000000006020830152604082019050919050565b600061234e602083612939565b91507f4552433732313a206d696e7420746f20746865207a65726f20616464726573736000830152602082019050919050565b600061238e602c83612939565b91507f4552433732313a20617070726f76656420717565727920666f72206e6f6e657860008301527f697374656e7420746f6b656e00000000000000000000000000000000000000006020830152604082019050919050565b60006123f4602083612939565b91507f4f776e61626c653a2063616c6c6572206973206e6f7420746865206f776e65726000830152602082019050919050565b6000612434602983612939565b91507f4552433732313a207472616e73666572206f6620746f6b656e2074686174206960008301527f73206e6f74206f776e00000000000000000000000000000000000000000000006020830152604082019050919050565b600061249a602f83612939565b91507f4552433732314d657461646174613a2055524920717565727920666f72206e6f60008301527f6e6578697374656e7420746f6b656e00000000000000000000000000000000006020830152604082019050919050565b6000612500602183612939565b91507f4552433732313a20617070726f76616c20746f2063757272656e74206f776e6560008301527f72000000000000000000000000000000000000000000000000000000000000006020830152604082019050919050565b6000612566603183612939565b91507f4552433732313a207472616e736665722063616c6c6572206973206e6f74206f60008301527f776e6572206e6f7220617070726f7665640000000000000000000000000000006020830152604082019050919050565b6125c881612a7a565b82525050565b60006125da8285611fc6565b91506125e68284611fc6565b91508190509392505050565b60006020820190506126076000830184611f36565b92915050565b60006080820190506126226000830187611f36565b61262f6020830186611f36565b61263c60408301856125bf565b818103606083015261264e8184611f54565b905095945050505050565b600060208201905061266e6000830184611f45565b92915050565b6000602082019050818103600083015261268e8184611f8d565b905092915050565b600060208201905081810360008301526126af81611ff7565b9050919050565b600060208201905081810360008301526126cf8161205d565b9050919050565b600060208201905081810360008301526126ef816120c3565b9050919050565b6000602082019050818103600083015261270f81612103565b9050919050565b6000602082019050818103600083015261272f81612169565b9050919050565b6000602082019050818103600083015261274f816121a9565b9050919050565b6000602082019050818103600083015261276f8161220f565b9050919050565b6000602082019050818103600083015261278f81612275565b9050919050565b600060208201905081810360008301526127af816122db565b9050919050565b600060208201905081810360008301526127cf81612341565b9050919050565b600060208201905081810360008301526127ef81612381565b9050919050565b6000602082019050818103600083015261280f816123e7565b9050919050565b6000602082019050818103600083015261282f81612427565b9050919050565b6000602082019050818103600083015261284f8161248d565b9050919050565b6000602082019050818103600083015261286f816124f3565b9050919050565b6000602082019050818103600083015261288f81612559565b9050919050565b60006020820190506128ab60008301846125bf565b92915050565b6000604051905081810181811067ffffffffffffffff821117156128d8576128d7612c0c565b5b8060405250919050565b600067ffffffffffffffff8211156128fd576128fc612c0c565b5b601f19601f8301169050602081019050919050565b600081519050919050565b600081519050919050565b600082825260208201905092915050565b600082825260208201905092915050565b600081905092915050565b600061296082612a7a565b915061296b83612a7a565b9250827fffffffffffffffffffffffffffffffffffffffffffffffffffffffffffffffff038211156129a05761299f612b7f565b5b828201905092915050565b60006129b682612a7a565b91506129c183612a7a565b9250826129d1576129d0612bae565b5b828204905092915050565b60006129e782612a7a565b91506129f283612a7a565b925082821015612a0557612a04612b7f565b5b828203905092915050565b6000612a1b82612a5a565b9050919050565b60008115159050919050565b60007fffffffff0000000000000000000000000000000000000000000000000000000082169050919050565b600073ffffffffffffffffffffffffffffffffffffffff82169050919050565b6000819050919050565b600060ff82169050919050565b82818337600083830152505050565b60005b83811015612abe578082015181840152602081019050612aa3565b83811115612acd576000848401525b50505050565b60006002820490506001821680612aeb57607f821691505b60208210811415612aff57612afe612bdd565b5b50919050565b6000612b1082612a7a565b91507fffffffffffffffffffffffffffffffffffffffffffffffffffffffffffffffff821415612b4357612b42612b7f565b5b600182019050919050565b6000612b5982612a7a565b9150612b6483612a7a565b925082612b7457612b73612bae565b5b828206905092915050565b7f4e487b7100000000000000000000000000000000000000000000000000000000600052601160045260246000fd5b7f4e487b7100000000000000000000000000000000000000000000000000000000600052601260045260246000fd5b7f4e487b7100000000000000000000000000000000000000000000000000000000600052602260045260246000fd5b7f4e487b7100000000000000000000000000000000000000000000000000000000600052604160045260246000fd5b6000601f19601f8301169050919050565b612c5581612a10565b8114612c6057600080fd5b50565b612c6c81612a22565b8114612c7757600080fd5b50565b612c8381612a2e565b8114612c8e57600080fd5b50565b612c9a81612a7a565b8114612ca557600080fd5b50565b612cb181612a84565b8114612cbc57600080fd5b5056fea26469706673582212203b321e311a2b901f24e595f2c5a910e1925435f557948376c0d33074167efa7464736f6c63430008000033",
  "immutableReferences": {},
  "source": "pragma solidity 0.8.0;\r\n\r\nimport \"../node_modules/@openzeppelin/contracts/token/ERC721/ERC721.sol\";\r\nimport \"../node_modules/@openzeppelin/contracts/access/Ownable.sol\";\r\n\r\ncontract Token is ERC721, Ownable {\r\n  struct Pet {\r\n    uint8 damage;\r\n    uint8 magic;\r\n    uint256 lastMeal;\r\n    uint256 endurance;\r\n  }\r\n  uint256 nextId = 0;\r\n\r\n  mapping(uint256 => Pet) private _tokenDetails;\r\n  constructor(string memory name, string memory symbol) ERC721(name, symbol){\r\n\r\n  }\r\n\r\n  function mint(uint8 damage, uint8 magic, uint8 endurance) public onlyOwner {\r\n    _tokenDetails[nextId] = Pet(magic, damage, block.timestamp, endurance);\r\n    _safeMint(msg.sender, nextId);\r\n    nextId++;\r\n  }\r\n\r\n  function feed(uint256 tokenId) public {\r\n    Pet storage pet = _tokenDetails[nextId];\r\n    require(pet.lastMeal + pet.endurance > block.timestamp);\r\n    pet.lastMeal = block.timestamp;\r\n  }\r\n\r\n  function _beforeTokenTransfer(address from, address to, uint256 tokenId) internal override {\r\n    Pet storage pet = _tokenDetails[nextId];\r\n    require(pet.lastMeal + pet.endurance > block.timestamp); // Pet is stil alive\r\n  }\r\n\r\n}\r\n",
  "sourcePath": "C:/Users/DeOliW20137/Documents/GitHub/Moralis_NFT/contracts/Tokens.sol",
  "compiler": {
    "name": "solc",
    "version": "0.8.0+commit.c7dfd78e.Emscripten.clang"
  },
  "schemaVersion": "3.3.4",
  "updatedAt": "2021-03-28T19:15:51.587Z",
  "devdoc": {
    "kind": "dev",
    "methods": {
      "approve(address,uint256)": {
        "details": "See {IERC721-approve}."
      },
      "balanceOf(address)": {
        "details": "See {IERC721-balanceOf}."
      },
      "getApproved(uint256)": {
        "details": "See {IERC721-getApproved}."
      },
      "isApprovedForAll(address,address)": {
        "details": "See {IERC721-isApprovedForAll}."
      },
      "name()": {
        "details": "See {IERC721Metadata-name}."
      },
      "owner()": {
        "details": "Returns the address of the current owner."
      },
      "ownerOf(uint256)": {
        "details": "See {IERC721-ownerOf}."
      },
      "renounceOwnership()": {
        "details": "Leaves the contract without owner. It will not be possible to call `onlyOwner` functions anymore. Can only be called by the current owner. NOTE: Renouncing ownership will leave the contract without an owner, thereby removing any functionality that is only available to the owner."
      },
      "safeTransferFrom(address,address,uint256)": {
        "details": "See {IERC721-safeTransferFrom}."
      },
      "safeTransferFrom(address,address,uint256,bytes)": {
        "details": "See {IERC721-safeTransferFrom}."
      },
      "setApprovalForAll(address,bool)": {
        "details": "See {IERC721-setApprovalForAll}."
      },
      "supportsInterface(bytes4)": {
        "details": "See {IERC165-supportsInterface}."
      },
      "symbol()": {
        "details": "See {IERC721Metadata-symbol}."
      },
      "tokenURI(uint256)": {
        "details": "See {IERC721Metadata-tokenURI}."
      },
      "transferFrom(address,address,uint256)": {
        "details": "See {IERC721-transferFrom}."
      },
      "transferOwnership(address)": {
        "details": "Transfers ownership of the contract to a new account (`newOwner`). Can only be called by the current owner."
      }
    },
    "version": 1
  },
  "userdoc": {
    "kind": "user",
    "methods": {},
    "version": 1
  }
}